{
  "_format": "hh-sol-artifact-1",
  "contractName": "NFTMarketplace",
  "sourceName": "contracts/NFTMarketplace.sol",
  "abi": [
    {
      "inputs": [
        {
          "internalType": "address",
          "name": "_vendorNFT",
          "type": "address"
        },
        {
          "internalType": "address payable",
          "name": "_owner",
          "type": "address"
        }
      ],
      "stateMutability": "nonpayable",
      "type": "constructor"
    },
    {
      "anonymous": false,
      "inputs": [
        {
          "indexed": true,
          "internalType": "address",
          "name": "buyer",
          "type": "address"
        },
        {
          "indexed": false,
          "internalType": "uint256",
          "name": "tokenId",
          "type": "uint256"
        },
        {
          "indexed": false,
          "internalType": "uint256",
          "name": "price",
          "type": "uint256"
        }
      ],
      "name": "NFTBought",
      "type": "event"
    },
    {
      "anonymous": false,
      "inputs": [
        {
          "indexed": true,
          "internalType": "address",
          "name": "user",
          "type": "address"
        },
        {
          "indexed": false,
          "internalType": "uint256",
          "name": "newTotalPoints",
          "type": "uint256"
        }
      ],
      "name": "PointsUpdated",
      "type": "event"
    },
    {
      "anonymous": false,
      "inputs": [
        {
          "indexed": true,
          "internalType": "uint256",
          "name": "tokenId",
          "type": "uint256"
        },
        {
          "indexed": false,
          "internalType": "address",
          "name": "owner",
          "type": "address"
        },
        {
          "indexed": false,
          "internalType": "address",
          "name": "seller",
          "type": "address"
        },
        {
          "indexed": false,
          "internalType": "uint256",
          "name": "price",
          "type": "uint256"
        },
        {
          "indexed": false,
          "internalType": "bool",
          "name": "currentlyListed",
          "type": "bool"
        }
      ],
      "name": "TokenListedSuccess",
      "type": "event"
    },
    {
      "inputs": [
        {
          "internalType": "address",
          "name": "nftContract",
          "type": "address"
        },
        {
          "internalType": "uint256",
          "name": "itemId",
          "type": "uint256"
        }
      ],
      "name": "buyNFT",
      "outputs": [],
      "stateMutability": "payable",
      "type": "function"
    },
    {
      "inputs": [],
      "name": "getActiveListings",
      "outputs": [
        {
          "components": [
            {
              "internalType": "uint256",
              "name": "itemId",
              "type": "uint256"
            },
            {
              "internalType": "address",
              "name": "nftContract",
              "type": "address"
            },
            {
              "internalType": "uint256",
              "name": "tokenId",
              "type": "uint256"
            },
            {
              "internalType": "address payable",
              "name": "owner",
              "type": "address"
            },
            {
              "internalType": "address payable",
              "name": "seller",
              "type": "address"
            },
            {
              "internalType": "uint256",
              "name": "price",
              "type": "uint256"
            },
            {
              "internalType": "bool",
              "name": "currentlyListed",
              "type": "bool"
            }
          ],
          "internalType": "struct NFTMarketplace.ListedToken[]",
          "name": "",
          "type": "tuple[]"
        }
      ],
      "stateMutability": "view",
      "type": "function"
    },
    {
      "inputs": [],
      "name": "getAllListings",
      "outputs": [
        {
          "components": [
            {
              "internalType": "uint256",
              "name": "itemId",
              "type": "uint256"
            },
            {
              "internalType": "address",
              "name": "nftContract",
              "type": "address"
            },
            {
              "internalType": "uint256",
              "name": "tokenId",
              "type": "uint256"
            },
            {
              "internalType": "address payable",
              "name": "owner",
              "type": "address"
            },
            {
              "internalType": "address payable",
              "name": "seller",
              "type": "address"
            },
            {
              "internalType": "uint256",
              "name": "price",
              "type": "uint256"
            },
            {
              "internalType": "bool",
              "name": "currentlyListed",
              "type": "bool"
            }
          ],
          "internalType": "struct NFTMarketplace.ListedToken[]",
          "name": "",
          "type": "tuple[]"
        }
      ],
      "stateMutability": "view",
      "type": "function"
    },
    {
      "inputs": [],
      "name": "getListingFee",
      "outputs": [
        {
          "internalType": "uint256",
          "name": "",
          "type": "uint256"
        }
      ],
      "stateMutability": "view",
      "type": "function"
    },
    {
      "inputs": [],
      "name": "getMyNFTs",
      "outputs": [
        {
          "components": [
            {
              "internalType": "uint256",
              "name": "itemId",
              "type": "uint256"
            },
            {
              "internalType": "address",
              "name": "nftContract",
              "type": "address"
            },
            {
              "internalType": "uint256",
              "name": "tokenId",
              "type": "uint256"
            },
            {
              "internalType": "address payable",
              "name": "owner",
              "type": "address"
            },
            {
              "internalType": "address payable",
              "name": "seller",
              "type": "address"
            },
            {
              "internalType": "uint256",
              "name": "price",
              "type": "uint256"
            },
            {
              "internalType": "bool",
              "name": "currentlyListed",
              "type": "bool"
            }
          ],
          "internalType": "struct NFTMarketplace.ListedToken[]",
          "name": "",
          "type": "tuple[]"
        }
      ],
      "stateMutability": "view",
      "type": "function"
    },
    {
      "inputs": [
        {
          "internalType": "uint256",
          "name": "itemId",
          "type": "uint256"
        }
      ],
      "name": "getNFTById",
      "outputs": [
        {
          "internalType": "uint256",
          "name": "tokenId",
          "type": "uint256"
        },
        {
          "internalType": "address",
          "name": "owner_",
          "type": "address"
        },
        {
          "internalType": "address",
          "name": "seller",
          "type": "address"
        },
        {
          "internalType": "uint256",
          "name": "price",
          "type": "uint256"
        },
        {
          "internalType": "string",
          "name": "uri",
          "type": "string"
        },
        {
          "internalType": "bool",
          "name": "currentlyListed",
          "type": "bool"
        }
      ],
      "stateMutability": "view",
      "type": "function"
    },
    {
      "inputs": [
        {
          "internalType": "address",
          "name": "user",
          "type": "address"
        }
      ],
      "name": "isEligibleForAirdrop",
      "outputs": [
        {
          "internalType": "bool",
          "name": "",
          "type": "bool"
        }
      ],
      "stateMutability": "view",
      "type": "function"
    },
    {
      "inputs": [
        {
          "internalType": "address",
          "name": "nftContract",
          "type": "address"
        },
        {
          "internalType": "uint256",
          "name": "tokenId",
          "type": "uint256"
        },
        {
          "internalType": "uint256",
          "name": "price",
          "type": "uint256"
        }
      ],
      "name": "listNFT",
      "outputs": [],
      "stateMutability": "payable",
      "type": "function"
    },
    {
      "inputs": [],
      "name": "pointThreshold",
      "outputs": [
        {
          "internalType": "uint256",
          "name": "",
          "type": "uint256"
        }
      ],
      "stateMutability": "view",
      "type": "function"
    },
    {
      "inputs": [],
      "name": "pointsPerTransaction",
      "outputs": [
        {
          "internalType": "uint256",
          "name": "",
          "type": "uint256"
        }
      ],
      "stateMutability": "view",
      "type": "function"
    },
    {
      "inputs": [
        {
          "internalType": "uint256",
          "name": "newThreshold",
          "type": "uint256"
        }
      ],
      "name": "setPointThreshold",
      "outputs": [],
      "stateMutability": "nonpayable",
      "type": "function"
    },
    {
      "inputs": [
        {
          "internalType": "uint256",
          "name": "newPoints",
          "type": "uint256"
        }
      ],
      "name": "setPointsPerTransaction",
      "outputs": [],
      "stateMutability": "nonpayable",
      "type": "function"
    },
    {
      "inputs": [
        {
          "internalType": "address",
          "name": "",
          "type": "address"
        }
      ],
      "name": "transactionCount",
      "outputs": [
        {
          "internalType": "uint256",
          "name": "",
          "type": "uint256"
        }
      ],
      "stateMutability": "view",
      "type": "function"
    },
    {
      "inputs": [
        {
          "internalType": "uint256",
          "name": "_listingFee",
          "type": "uint256"
        }
      ],
      "name": "updateListingFee",
      "outputs": [],
      "stateMutability": "payable",
      "type": "function"
    },
    {
      "inputs": [
        {
          "internalType": "address",
          "name": "",
          "type": "address"
        }
      ],
      "name": "userPoints",
      "outputs": [
        {
          "internalType": "uint256",
          "name": "",
          "type": "uint256"
        }
      ],
      "stateMutability": "view",
      "type": "function"
    },
    {
      "inputs": [],
      "name": "vendorNFT",
      "outputs": [
        {
          "internalType": "contract VendorNFT",
          "name": "",
          "type": "address"
        }
      ],
      "stateMutability": "view",
      "type": "function"
    }
  ],
  "bytecode": "0x6080604052662386f26fc10000600555600a600655606460075534801561002557600080fd5b50604051620017f8380380620017f883398101604081905261004691610094565b6001600081905580546001600160a01b039384166001600160a01b031991821617909155600480549290931691161790556100ce565b6001600160a01b038116811461009157600080fd5b50565b600080604083850312156100a757600080fd5b82516100b28161007c565b60208401519092506100c38161007c565b809150509250929050565b61171a80620000de6000396000f3fe6080604052600436106100f35760003560e01c8063a82ba76f1161008a578063b8fe6abe11610059578063b8fe6abe14610282578063e9d1c59814610297578063f50ddbc7146102e4578063f79d91ae1461031157600080fd5b8063a82ba76f14610231578063ad05f1b414610244578063ae73ccec14610257578063b0adb2201461026c57600080fd5b8063629cb2e4116100c6578063629cb2e41461019b57806387c35bc0146101bd57806399be3375146101d2578063a168b805146101ff57600080fd5b806304287a12146100f857806341a25f53146101215780634c5dbe2f146101435780634f0b0fed1461017b575b600080fd5b34801561010457600080fd5b5061010e60065481565b6040519081526020015b60405180910390f35b34801561012d57600080fd5b5061014161013c3660046113a0565b610324565b005b34801561014f57600080fd5b50600154610163906001600160a01b031681565b6040516001600160a01b039091168152602001610118565b34801561018757600080fd5b506101416101963660046113a0565b610382565b3480156101a757600080fd5b506101b06103db565b60405161011891906113b9565b3480156101c957600080fd5b506101b0610617565b3480156101de57600080fd5b5061010e6101ed366004611465565b60096020526000908152604090205481565b34801561020b57600080fd5b5061021f61021a3660046113a0565b6107a6565b604051610118969594939291906114ad565b61014161023f366004611510565b610935565b61014161025236600461153c565b610b96565b34801561026357600080fd5b506101b06110d2565b34801561027857600080fd5b5061010e60075481565b34801561028e57600080fd5b5060055461010e565b3480156102a357600080fd5b506102d46102b2366004611465565b6007546001600160a01b03909116600090815260086020526040902054101590565b6040519015158152602001610118565b3480156102f057600080fd5b5061010e6102ff366004611465565b60086020526000908152604090205481565b61014161031f3660046113a0565b6111f7565b6004546001600160a01b0316331461037d5760405162461bcd60e51b815260206004820152601760248201527621b0b63632b91034b9903737ba103a34329037bbb732b960491b60448201526064015b60405180910390fd5b600655565b6004546001600160a01b031633146103d65760405162461bcd60e51b815260206004820152601760248201527621b0b63632b91034b9903737ba103a34329037bbb732b960491b6044820152606401610374565b600755565b606060006103e860025490565b905060008080805b848110156104805733600a6000610408846001611587565b81526020810191909152604001600020600301546001600160a01b0316148061045b575033600a600061043c846001611587565b81526020810191909152604001600020600401546001600160a01b0316145b1561046e5761046b600185611587565b93505b80610478816115a0565b9150506103f0565b5060008367ffffffffffffffff81111561049c5761049c6115b9565b6040519080825280602002602001820160405280156104d557816020015b6104c2611364565b8152602001906001900390816104ba5790505b50905060005b8581101561060d5733600a60006104f3846001611587565b81526020810191909152604001600020600301546001600160a01b03161480610546575033600a6000610527846001611587565b81526020810191909152604001600020600401546001600160a01b0316145b156105fb57610556816001611587565b6000818152600a6020908152604091829020825160e0810184528154815260018201546001600160a01b039081169382019390935260028201549381019390935260038101548216606084015260048101549091166080830152600581015460a0830152600681015460ff16151560c08301528451929550918490879081106105e1576105e16115cf565b60209081029190910101526105f7600186611587565b9450505b80610605816115a0565b9150506104db565b5095945050505050565b6060600061062460025490565b9050600060015b82811161066c576000818152600a602052604090206006015460ff161561065a5781610656816115a0565b9250505b80610664816115a0565b91505061062b565b5060008167ffffffffffffffff811115610688576106886115b9565b6040519080825280602002602001820160405280156106c157816020015b6106ae611364565b8152602001906001900390816106a65790505b509050600060015b84811161079c576000818152600a602052604090206006015460ff161561078a576000818152600a6020908152604091829020825160e0810184528154815260018201546001600160a01b039081169382019390935260028201549381019390935260038101548216606084015260048101549091166080830152600581015460a08301526006015460ff16151560c08201528351849084908110610770576107706115cf565b60200260200101819052508180610786906115a0565b9250505b80610794816115a0565b9150506106c9565b5090949350505050565b6000818152600a60209081526040808320815160e081018352815481526001808301546001600160a01b039081169583019590955260028301548285018190526003840154861660608085019190915260048086015488166080860152600586015460a086015260069095015460ff16151560c0850152915494516331a9108f60e11b81529384015285948594859492938593909284921690636352211e90602401602060405180830381865afa158015610865573d6000803e3d6000fd5b505050506040513d601f19601f8201168201806040525081019061088991906115e5565b600154604080850151905163c87b56dd60e01b81529293506000926001600160a01b039092169163c87b56dd916108c69160040190815260200190565b600060405180830381865afa1580156108e3573d6000803e3d6000fd5b505050506040513d6000823e601f3d908101601f1916820160405261090b9190810190611602565b6040840151608085015160a086015160c090960151919d949c509a50939850965091945092505050565b61093d611262565b6000818152600a6020526040902060058101546002820154600483015460068401546001600160a01b039091169060ff16806109b35760405162461bcd60e51b81526020600482015260156024820152744c697374696e67206973206e6f742061637469766560581b6044820152606401610374565b83341015610a2b576040805162461bcd60e51b81526020600482015260248101919091527f506c65617365207375626d6974207468652061736b696e67207072696365206960448201527f6e206f7264657220746f20636f6d706c657465207468652070757263686173656064820152608401610374565b6040516001600160a01b038316903480156108fc02916000818181858888f19350505050158015610a60573d6000803e3d6000fd5b506040516323b872dd60e01b8152306004820152336024820152604481018490526001600160a01b038816906323b872dd90606401600060405180830381600087803b158015610aaf57600080fd5b505af1158015610ac3573d6000803e3d6000fd5b5050506000878152600a602052604090206004810180546001600160a01b03191633179055600601805460ff1916905550610b02600380546001019055565b6004546005546040516001600160a01b039092169181156108fc0291906000818181858888f19350505050158015610b3e573d6000803e3d6000fd5b50610b48336112bb565b604080518481526020810186905233917f38bb180d23818aef357ad4b3806bac3fa13c3492c0ac9d1727381fb2422aaada910160405180910390a25050505050610b926001600055565b5050565b610b9e611262565b600554341015610bf05760405162461bcd60e51b815260206004820152601860248201527f696e73756666696369656e74206c697374696e672066656500000000000000006044820152606401610374565b60008111610c4b5760405162461bcd60e51b815260206004820152602260248201527f4d616b652073757265207468652070726963652069736e2774206e6567617469604482015261766560f01b6064820152608401610374565b6001546001600160a01b0390811690841603610d27576040516331a9108f60e11b81526004810183905233906001600160a01b03851690636352211e90602401602060405180830381865afa158015610ca8573d6000803e3d6000fd5b505050506040513d601f19601f82011682018060405250810190610ccc91906115e5565b6001600160a01b031614610d225760405162461bcd60e51b815260206004820152601f60248201527f596f75206d757374206f776e20746865204e465420746f206c697374206974006044820152606401610374565b610eb1565b600154604051630375994960e61b81523360048201526001600160a01b039091169063dd66524090602401602060405180830381865afa158015610d6f573d6000803e3d6000fd5b505050506040513d601f19601f82011682018060405250810190610d9391906116af565b610df05760405162461bcd60e51b815260206004820152602860248201527f4f6e6c792076656e646f72732063616e206c6973742066726f6d20746869732060448201526718dbdb9d1c9858dd60c21b6064820152608401610374565b6040516331a9108f60e11b81526004810183905233906001600160a01b03851690636352211e90602401602060405180830381865afa158015610e37573d6000803e3d6000fd5b505050506040513d601f19601f82011682018060405250810190610e5b91906115e5565b6001600160a01b031614610eb15760405162461bcd60e51b815260206004820152601f60248201527f596f75206d757374206f776e20746865204e465420746f206c697374206974006044820152606401610374565b610ebf600280546001019055565b6000610eca60025490565b6040516323b872dd60e01b8152336004820152306024820152604481018590529091506001600160a01b038516906323b872dd90606401600060405180830381600087803b158015610f1b57600080fd5b505af1158015610f2f573d6000803e3d6000fd5b505050506040518060e00160405280828152602001856001600160a01b03168152602001848152602001306001600160a01b03168152602001336001600160a01b0316815260200183815260200160011515815250600a60008381526020019081526020016000206000820151816000015560208201518160010160006101000a8154816001600160a01b0302191690836001600160a01b031602179055506040820151816002015560608201518160030160006101000a8154816001600160a01b0302191690836001600160a01b0316021790555060808201518160040160006101000a8154816001600160a01b0302191690836001600160a01b0316021790555060a0820151816005015560c08201518160060160006101000a81548160ff021916908315150217905550905050827f9339409317fd01fabff48b703019016f49159bacc801ae872d2ca637d226e4c030338560016040516110ba94939291906001600160a01b0394851681529290931660208301526040820152901515606082015260800190565b60405180910390a2506110cd6001600055565b505050565b606060006110df60025490565b905060008167ffffffffffffffff8111156110fc576110fc6115b9565b60405190808252806020026020018201604052801561113557816020015b611122611364565b81526020019060019003908161111a5790505b50905060015b8281116111f0576000818152600a6020908152604091829020825160e081018452815481526001808301546001600160a01b039081169483019490945260028301549482019490945260038201548316606082015260048201549092166080830152600581015460a08301526006015460ff16151560c08201529083906111c290846116d1565b815181106111d2576111d26115cf565b602002602001018190525080806111e8906115a0565b91505061113b565b5092915050565b6004546001600160a01b0316331461125d5760405162461bcd60e51b815260206004820152602360248201527f4f6e6c79206f776e65722063616e20757064617465206c697374696e6720707260448201526269636560e81b6064820152608401610374565b600555565b6002600054036112b45760405162461bcd60e51b815260206004820152601f60248201527f5265656e7472616e637947756172643a207265656e7472616e742063616c6c006044820152606401610374565b6002600055565b6006546001600160a01b038216600090815260086020526040812080549091906112e6908490611587565b90915550506001600160a01b038116600090815260096020526040812080549161130f836115a0565b90915550506001600160a01b0381166000818152600860209081526040918290205491519182527fa05f39e6d8d4e060324edb900f0f5909de621fd93f19ccf65ba74e5965c98c36910160405180910390a250565b6040805160e081018252600080825260208201819052918101829052606081018290526080810182905260a0810182905260c081019190915290565b6000602082840312156113b257600080fd5b5035919050565b602080825282518282018190526000919060409081850190868401855b8281101561144057815180518552868101516001600160a01b039081168887015286820151878701526060808301518216908701526080808301519091169086015260a0808201519086015260c09081015115159085015260e090930192908501906001016113d6565b5091979650505050505050565b6001600160a01b038116811461146257600080fd5b50565b60006020828403121561147757600080fd5b81356114828161144d565b9392505050565b60005b838110156114a457818101518382015260200161148c565b50506000910152565b868152600060018060a01b03808816602084015280871660408401525084606083015260c0608083015283518060c08401526114f08160e0850160208801611489565b92151560a083015250601f91909101601f19160160e00195945050505050565b6000806040838503121561152357600080fd5b823561152e8161144d565b946020939093013593505050565b60008060006060848603121561155157600080fd5b833561155c8161144d565b95602085013595506040909401359392505050565b634e487b7160e01b600052601160045260246000fd5b8082018082111561159a5761159a611571565b92915050565b6000600182016115b2576115b2611571565b5060010190565b634e487b7160e01b600052604160045260246000fd5b634e487b7160e01b600052603260045260246000fd5b6000602082840312156115f757600080fd5b81516114828161144d565b60006020828403121561161457600080fd5b815167ffffffffffffffff8082111561162c57600080fd5b818401915084601f83011261164057600080fd5b815181811115611652576116526115b9565b604051601f8201601f19908116603f0116810190838211818310171561167a5761167a6115b9565b8160405282815287602084870101111561169357600080fd5b6116a4836020830160208801611489565b979650505050505050565b6000602082840312156116c157600080fd5b8151801515811461148257600080fd5b8181038181111561159a5761159a61157156fea264697066735822122021d9184f0b4f263c53885d4a4e43564f5cc05d190a28b9d8078b4bd648cc4b6e64736f6c63430008110033",
  "linkReferences": {},
  "deployedLinkReferences": {}
}